{
    "_format": "hh-sol-artifact-1",
    "contractName": "CampaignFactory",
    "sourceName": "contracts/Campaign.sol",
    "abi": [
        {
            "inputs": [
                {
                    "internalType": "uint256",
                    "name": "minimum",
                    "type": "uint256"
                }
            ],
            "name": "CreateCampaign",
            "outputs": [],
            "stateMutability": "nonpayable",
            "type": "function"
        },
        {
            "inputs": [
                {
                    "internalType": "uint256",
                    "name": "",
                    "type": "uint256"
                }
            ],
            "name": "deployedCampaigns",
            "outputs": [
                {
                    "internalType": "address",
                    "name": "",
                    "type": "address"
                }
            ],
            "stateMutability": "view",
            "type": "function"
        },
        {
            "inputs": [],
            "name": "getDeployedCampaigns",
            "outputs": [
                {
                    "internalType": "address[]",
                    "name": "",
                    "type": "address[]"
                }
            ],
            "stateMutability": "view",
            "type": "function"
        },
        {
            "inputs": [
                {
                    "internalType": "address",
                    "name": "owner",
                    "type": "address"
                }
            ],
            "name": "getLastCampaignMap",
            "outputs": [
                {
                    "internalType": "address",
                    "name": "",
                    "type": "address"
                }
            ],
            "stateMutability": "view",
            "type": "function"
        },
        {
            "inputs": [
                {
                    "internalType": "address",
                    "name": "",
                    "type": "address"
                }
            ],
            "name": "lastCampaignMap",
            "outputs": [
                {
                    "internalType": "address",
                    "name": "",
                    "type": "address"
                }
            ],
            "stateMutability": "view",
            "type": "function"
        }
    ],
    "bytecode": "0x608060405234801561001057600080fd5b50611486806100206000396000f3fe608060405234801561001057600080fd5b50600436106100575760003560e01c8063149b71c81461005c578063339d50a51461008c5780634acb9d4f146100bc5780639ab56857146100da578063a4b285cd146100f6575b600080fd5b6100766004803603810190610071919061041e565b610126565b604051610083919061045a565b60405180910390f35b6100a660048036038101906100a191906104ab565b61018f565b6040516100b3919061045a565b60405180910390f35b6100c46101ce565b6040516100d19190610596565b60405180910390f35b6100f460048036038101906100ef91906104ab565b61025c565b005b610110600480360381019061010b919061041e565b61037b565b60405161011d919061045a565b60405180910390f35b6000600160008373ffffffffffffffffffffffffffffffffffffffff1673ffffffffffffffffffffffffffffffffffffffff16815260200190815260200160002060009054906101000a900473ffffffffffffffffffffffffffffffffffffffff169050919050565b6000818154811061019f57600080fd5b906000526020600020016000915054906101000a900473ffffffffffffffffffffffffffffffffffffffff1681565b6060600080548060200260200160405190810160405280929190818152602001828054801561025257602002820191906000526020600020905b8160009054906101000a900473ffffffffffffffffffffffffffffffffffffffff1673ffffffffffffffffffffffffffffffffffffffff1681526020019060010190808311610208575b5050505050905090565b6000813360405161026c906103ae565b6102779291906105c7565b604051809103906000f080158015610293573d6000803e3d6000fd5b5090506000819080600181540180825580915050600190039060005260206000200160009091909190916101000a81548173ffffffffffffffffffffffffffffffffffffffff021916908373ffffffffffffffffffffffffffffffffffffffff16021790555080600160003373ffffffffffffffffffffffffffffffffffffffff1673ffffffffffffffffffffffffffffffffffffffff16815260200190815260200160002060006101000a81548173ffffffffffffffffffffffffffffffffffffffff021916908373ffffffffffffffffffffffffffffffffffffffff1602179055505050565b60016020528060005260406000206000915054906101000a900473ffffffffffffffffffffffffffffffffffffffff1681565b610e60806105f183390190565b600080fd5b600073ffffffffffffffffffffffffffffffffffffffff82169050919050565b60006103eb826103c0565b9050919050565b6103fb816103e0565b811461040657600080fd5b50565b600081359050610418816103f2565b92915050565b600060208284031215610434576104336103bb565b5b600061044284828501610409565b91505092915050565b610454816103e0565b82525050565b600060208201905061046f600083018461044b565b92915050565b6000819050919050565b61048881610475565b811461049357600080fd5b50565b6000813590506104a58161047f565b92915050565b6000602082840312156104c1576104c06103bb565b5b60006104cf84828501610496565b91505092915050565b600081519050919050565b600082825260208201905092915050565b6000819050602082019050919050565b61050d816103e0565b82525050565b600061051f8383610504565b60208301905092915050565b6000602082019050919050565b6000610543826104d8565b61054d81856104e3565b9350610558836104f4565b8060005b838110156105895781516105708882610513565b975061057b8361052b565b92505060018101905061055c565b5085935050505092915050565b600060208201905081810360008301526105b08184610538565b905092915050565b6105c181610475565b82525050565b60006040820190506105dc60008301856105b8565b6105e9602083018461044b565b939250505056fe60806040523480156200001157600080fd5b5060405162000e6038038062000e60833981810160405281019062000037919062000134565b80600160006101000a81548173ffffffffffffffffffffffffffffffffffffffff021916908373ffffffffffffffffffffffffffffffffffffffff16021790555081600281905550600060038190555050506200017b565b600080fd5b6000819050919050565b620000a98162000094565b8114620000b557600080fd5b50565b600081519050620000c9816200009e565b92915050565b600073ffffffffffffffffffffffffffffffffffffffff82169050919050565b6000620000fc82620000cf565b9050919050565b6200010e81620000ef565b81146200011a57600080fd5b50565b6000815190506200012e8162000103565b92915050565b600080604083850312156200014e576200014d6200008f565b5b60006200015e85828601620000b8565b925050602062000171858286016200011d565b9150509250929050565b610cd5806200018b6000396000f3fe6080604052600436106100a75760003560e01c8063481c6a7511610064578063481c6a75146101c557806381d12c58146101f05780638f03850b14610230578063937e09b11461025b578063d7bb99ba14610286578063d7d1bbdb14610290576100a7565b806303441006146100ac5780631d0d35f5146100c85780632a40f4f9146101055780632f51e58c146101425780633fad18341461016b5780634051ddac14610196575b600080fd5b6100c660048036038101906100c1919061093e565b6102b9565b005b3480156100d457600080fd5b506100ef60048036038101906100ea91906109c9565b610415565b6040516100fc9190610a11565b60405180910390f35b34801561011157600080fd5b5061012c60048036038101906101279190610a2c565b61046a565b6040516101399190610a11565b60405180910390f35b34801561014e57600080fd5b5061016960048036038101906101649190610a6c565b61053f565b005b34801561017757600080fd5b50610180610642565b60405161018d9190610abb565b60405180910390f35b3480156101a257600080fd5b506101ab61064f565b6040516101bc959493929190610ae5565b60405180910390f35b3480156101d157600080fd5b506101da610698565b6040516101e79190610b38565b60405180910390f35b3480156101fc57600080fd5b506102176004803603810190610212919061093e565b6106be565b6040516102279493929190610b53565b60405180910390f35b34801561023c57600080fd5b5061024561072b565b6040516102529190610abb565b60405180910390f35b34801561026757600080fd5b50610270610731565b60405161027d9190610abb565b60405180910390f35b61028e610737565b005b34801561029c57600080fd5b506102b760048036038101906102b2919061093e565b6107b7565b005b600160009054906101000a900473ffffffffffffffffffffffffffffffffffffffff1673ffffffffffffffffffffffffffffffffffffffff163373ffffffffffffffffffffffffffffffffffffffff161461031357600080fd5b60006004828154811061032957610328610b98565b5b906000526020600020906004020190508060010160149054906101000a900460ff161561035557600080fd5b806000015447101561036657600080fd5b60026003546103759190610c25565b8160020154101561038557600080fd5b8060010160009054906101000a900473ffffffffffffffffffffffffffffffffffffffff1673ffffffffffffffffffffffffffffffffffffffff166108fc82600001549081150290604051600060405180830381858888f193505050501580156103f3573d6000803e3d6000fd5b5060018160010160146101000a81548160ff0219169083151502179055505050565b60008060008373ffffffffffffffffffffffffffffffffffffffff1673ffffffffffffffffffffffffffffffffffffffff16815260200190815260200160002060009054906101000a900460ff169050919050565b60008060008473ffffffffffffffffffffffffffffffffffffffff1673ffffffffffffffffffffffffffffffffffffffff16815260200190815260200160002060009054906101000a900460ff166104c157600080fd5b6000600483815481106104d7576104d6610b98565b5b906000526020600020906004020190508060030160008573ffffffffffffffffffffffffffffffffffffffff1673ffffffffffffffffffffffffffffffffffffffff16815260200190815260200160002060009054906101000a900460ff1691505092915050565b600160009054906101000a900473ffffffffffffffffffffffffffffffffffffffff1673ffffffffffffffffffffffffffffffffffffffff163373ffffffffffffffffffffffffffffffffffffffff161461059957600080fd5b814710156105a657600080fd5b600060046001816001815401808255809150500390600052602060002090600402019050828160000181905550818160010160006101000a81548173ffffffffffffffffffffffffffffffffffffffff021916908373ffffffffffffffffffffffffffffffffffffffff16021790555060008160010160146101000a81548160ff02191690831515021790555060008160020181905550505050565b6000600480549050905090565b6000806000806000600160009054906101000a900473ffffffffffffffffffffffffffffffffffffffff1647600254600480549050600354945094509450945094509091929394565b600160009054906101000a900473ffffffffffffffffffffffffffffffffffffffff1681565b600481815481106106ce57600080fd5b90600052602060002090600402016000915090508060000154908060010160009054906101000a900473ffffffffffffffffffffffffffffffffffffffff16908060010160149054906101000a900460ff16908060020154905084565b60035481565b60025481565b60025434101561074657600080fd5b60016000803373ffffffffffffffffffffffffffffffffffffffff1673ffffffffffffffffffffffffffffffffffffffff16815260200190815260200160002060006101000a81548160ff021916908315150217905550600360008154809291906107b090610c56565b9190505550565b6000600482815481106107cd576107cc610b98565b5b906000526020600020906004020190506000803373ffffffffffffffffffffffffffffffffffffffff1673ffffffffffffffffffffffffffffffffffffffff16815260200190815260200160002060009054906101000a900460ff1661083257600080fd5b8060030160003373ffffffffffffffffffffffffffffffffffffffff1673ffffffffffffffffffffffffffffffffffffffff16815260200190815260200160002060009054906101000a900460ff161561088b57600080fd5b60018160030160003373ffffffffffffffffffffffffffffffffffffffff1673ffffffffffffffffffffffffffffffffffffffff16815260200190815260200160002060006101000a81548160ff0219169083151502179055508060020160008154809291906108fa90610c56565b91905055505050565b600080fd5b6000819050919050565b61091b81610908565b811461092657600080fd5b50565b60008135905061093881610912565b92915050565b60006020828403121561095457610953610903565b5b600061096284828501610929565b91505092915050565b600073ffffffffffffffffffffffffffffffffffffffff82169050919050565b60006109968261096b565b9050919050565b6109a68161098b565b81146109b157600080fd5b50565b6000813590506109c38161099d565b92915050565b6000602082840312156109df576109de610903565b5b60006109ed848285016109b4565b91505092915050565b60008115159050919050565b610a0b816109f6565b82525050565b6000602082019050610a266000830184610a02565b92915050565b60008060408385031215610a4357610a42610903565b5b6000610a51858286016109b4565b9250506020610a6285828601610929565b9150509250929050565b60008060408385031215610a8357610a82610903565b5b6000610a9185828601610929565b9250506020610aa2858286016109b4565b9150509250929050565b610ab581610908565b82525050565b6000602082019050610ad06000830184610aac565b92915050565b610adf8161098b565b82525050565b600060a082019050610afa6000830188610ad6565b610b076020830187610aac565b610b146040830186610aac565b610b216060830185610aac565b610b2e6080830184610aac565b9695505050505050565b6000602082019050610b4d6000830184610ad6565b92915050565b6000608082019050610b686000830187610aac565b610b756020830186610ad6565b610b826040830185610a02565b610b8f6060830184610aac565b95945050505050565b7f4e487b7100000000000000000000000000000000000000000000000000000000600052603260045260246000fd5b7f4e487b7100000000000000000000000000000000000000000000000000000000600052601260045260246000fd5b7f4e487b7100000000000000000000000000000000000000000000000000000000600052601160045260246000fd5b6000610c3082610908565b9150610c3b83610908565b925082610c4b57610c4a610bc7565b5b828204905092915050565b6000610c6182610908565b91507fffffffffffffffffffffffffffffffffffffffffffffffffffffffffffffffff821415610c9457610c93610bf6565b5b60018201905091905056fea2646970667358221220803aa0c350e08b7b15897bb5ae61f1cc88bbda6e8de505b4319d5f1a6850418764736f6c63430008090033a26469706673582212207c113ac4cddbf07429ecafd762f0a7dac03bc3bb765c22baac508aa28edc623364736f6c63430008090033",
    "linkReferences": {},
    "deployedLinkReferences": {}
}